:020000040800F2
:1000000050040020B50C0008790100087B010008AD
:100010007F0100088301000887010008000000003C
:100020000000000000000000000000008B0100083C
:100030008D010008000000008F01000891010008F8
:10004000CF0C0008CF0C0008CF0C0008CF0C000824
:10005000CF0C0008CF0C0008CF0C0008CF0C000814
:10006000CF0C0008CF0C0008CF0C0008CF0C000804
:10007000CF0C0008CF0C0008CF0C0008CF0C0008F4
:10008000CF0C0008CF0C0008CF0C0008CF0C0008E4
:10009000CF0C0008CF0C0008CF0C0008CF0C0008D4
:1000A000CF0C0008CF0C0008CF0C0008CF0C0008C4
:1000B000CF0C0008CF0C0008CF0C0008CF0C0008B4
:1000C000CF0C0008CF0C0008CF0C0008CF0C0008A4
:1000D000CF0C00082D070008CF0C0008CF0C00083B
:1000E000CF0C0008CF0C0008CF0C0008CF0C000884
:1000F000CF0C0008CF0C0008CF0C0008CF0C000874
:10010000CF0C0008CF0C0008CF0C0008CF0C000863
:10011000CF0C0008CF0C0008CF0C0008CF0C000853
:10012000CF0C0008CF0C0008CF0C0008CF0C000843
:10013000DFF80CD002F0EEF9004800474501000856
:100140005004002000F028F80549086008460068BF
:1001500010B104A002F038FA01E000F07EF8FCE7EC
:1001600000000020D3B2BCFEB3F5CABCBBAFB4E6FE
:10017000D4DACECACCE20A00704700BFFEE700BF67
:10018000FEE700BFFEE700BFFEE77047704770471D
:1001900010B500F01BF810BD10B5002400F056FAA1
:1001A00000F093FA00F03CFB00F047F800F004FB8D
:1001B000052000F093F80446E0B210BD4549086000
:1001C00000BF444909680029FBD1704741480068D5
:1001D00028B140480068401E3E4908602CE03E4877
:1001E0004088401C00B23C49488008468088401C3A
:1001F00000B288800846C088401C00B2C88008460B
:100200000089401C00B2088108464089401C00B2A9
:10021000488108460088012804D108468089401C8E
:1002200000B2888101202C4908802A4800680028F3
:1002300002DA00202749086070470020264908801C
:1002400048808880C88008814881888170477047CD
:100250007047704770477047704700B51E48008868
:10026000012836D1FFF7F8FF1B48B0F90200022839
:1002700004DB002018494880FFF7EDFF1648B0F96D
:100280000400052804DB002013498880FFF7E2FF03
:100290001148B0F906000A2804DB00200E49C88086
:1002A000FFF7D7FF0C48B0F90800142804DB002042
:1002B00009490881FFF7CCFF0748B0F90A00322846
:1002C00004DB002004494881FFF7C1FF00200249F8
:1002D000088000BD040000204000002010B5044646
:1002E000204600F04BFC10BD2DE9F04704460D46BA
:1002F000B4F91A0001F07DFF8146C94801684846FB
:1003000001F020FE0746284601F07CFF8146C549E2
:1003100001F01EFE8046394601F01AFE0646C0482E
:100320000168304601F0BCFDBD490860BE49BC48CB
:10033000006801F03FFE0646BC4901F0B1FDBDE892
:10034000F0872DE9F04786B082460C4600200390E6
:1003500004900590009001900290B548006800EB71
:10036000400104F1340000EB4100DAF80E100160A6
:10037000BAF812108180AE48006800EB400104F129
:10038000700000EB4100DAF814100160BAF81810A0
:100390008180A7480068401CA5490860084600689D
:1003A000092801DD002008604FF0000957E009EB43
:1003B000490204F1340131F9120001F01AFF054637
:1003C000039901F06DFD039009EB490204F134013A
:1003D00001EB4201B1F9020001F00BFF054604995F
:1003E00001F05EFD049009EB490204F1340101EBD8
:1003F0004201B1F9040001F0FCFE0546059901F047
:100400004FFD059009EB490204F1700131F912002A
:1004100001F0EFFE0546009901F042FD009009EB66
:10042000490204F1700101EB4201B1F9020001F04F
:10043000E0FE0546019901F033FD019009EB490208
:1004400004F1700101EB4201B1F9040001F0D1FEA9
:100450000546029901F024FD029009F10109B9F164
:100460000A0FA4DB039801F0EBFE07460022714B54
:1004700001F050FE054601F0F6FE2060049801F000
:10048000DFFE074600226B4B01F044FE054601F0FB
:10049000EAFE6060059801F0D3FE07460022654B36
:1004A00001F038FE054601F0DEFEA060009801F084
:1004B000C7FE054600225F4B01F02CFE074601F007
:1004C000D2FEE060019801F0BBFE05460022594BC8
:1004D00001F020FE074601F0C6FE2061029801F0FF
:1004E000AFFE05460022534B01F014FE074601F013
:1004F000BAFE60615049206801F02AFDE0614E4972
:10050000606801F025FD20624B49A06801F020FDE4
:1005100060624A49E06801F01BFDA062474920691A
:1005200001F016FDE0624549606901F011FD2063AC
:1005300006B0BDE8F0872DE9F04106460C461546A9
:10054000304600F079FB21463046FFF7FAFE294697
:100550003046FFF7C9FE074601F059FE00B220837E
:10056000BDE8F0812DE9FF5F04468946206801F06F
:1005700067FECDE90201606801F062FECDE900018D
:10058000DDE9022302F030FA074600222C4B01F08D
:100590004FFD05462B4A2C4B01F0BCFD824601F075
:1005A00062FEC9F80800606801F04AFE0746884606
:1005B000A06801F045FE82463A46434602F014FA2E
:1005C00000221F4BCDE9000101F032FD05461D4A16
:1005D0001D4B01F09FFDCDE9020101F044FEC9F879
:1005E0000000A06801F02CFECDE90001206801F0B8
:1005F00027FE0546DDE9002302F0F6F90746002252
:100600000F4B01F015FD82460E4A0F4B01F082FDA3
:10061000CDE9020101F027FEC9F80400BDE8FF9F03
:1006200008000020C3F5C8400000AA4300001242A1
:100630000C00002000002440F700753EFD007A3DCC
:1006400000806640F1D4C853FB21094000B585B055
:10065000012144F2040001F0BBF94FF40070ADF841
:10066000100018208DF8130003208DF8120004A943
:100670003A4800F0EFFC4FF48060ADF81000042021
:100680008DF8130004A9354800F0E4FC4FF4E13084
:1006900000900020ADF80400ADF80600ADF80800A9
:1006A000ADF80C000C20ADF80A0069462C4801F0AA
:1006B00036FA012240F22551294801F0C8FA0121F9
:1006C000274801F0B8FA05B000BD08B54FF4E06066
:1006D00000F0F2FB25208DF8000000208DF80100CD
:1006E00001208DF802008DF80300684600F0E9FB58
:1006F00008BD70B504460D46E1B2194801F008FB8B
:1007000000BF8021164801F071FB0028F9D0204677
:1007100070BD10B5044600BF2021114801F066FBF2
:100720000028F9D00E4801F0F7FA10BD10B540F2DC
:1007300025510B4801F070FB38B1094801F0ECFA83
:10074000C4B2214607A001F03FFF10BD10B506A0BE
:1007500001F03AFF0DA001F037FF10BD0008014085
:1007600000380140256300000D0A20D5E2CAC7D237
:10077000BBB8F6B4AEBFDAD6D0B6CFBDD3CAD5BB00
:10078000D8CFD4CAB5D1E9200D0A00000D0A20C780
:10079000EBD4DAB3ACBCB6D6D5B6CBBBF2D5DFB4AE
:1007A000AEBFDAB5F7CAD4D6FACAD6CAE4C8EBD710
:1007B000D6B7FB200D0A000030B5164800684FF48C
:1007C0007A72B0FBF2F1B1F1807F01D301201DE01C
:1007D00021F07F40401E4FF0E022506150170F2261
:1007E000002807DA13071D0E0B4B00F00F04241F1F
:1007F0001D5503E013071C0E084B1C5400BF0020BE
:100800004FF0E022906107201061002008B100BF86
:10081000FEE730BD1400002018ED00E000E400E029
:1008200000B585B00121082001F0D2F8012148056A
:1008300001F0DBF8C020ADF8100003208DF81200A5
:100840001C208DF8130004A90F4800F003FC0020C1
:10085000ADF804004BF6FF70ADF806000A20ADF8C5
:1008600008004FF48060ADF80A000001ADF80C00FC
:10087000064800906946064800F053FD01210448EF
:1008800000F0CDFD05B000BD000C0140801A06004F
:100890000054004070B504460D460121FE4800F0AA
:1008A000E2FD00BFFD49FC4800F0BEFE0028F9D083
:1008B0000022D021F84800F02CFE00BFF849F6488D
:1008C00000F0B2FE0028F9D02946F34800F01BFEE4
:1008D00000BFF349891CF04800F0A6FE0028F8D0BC
:1008E0002146ED4800F00FFE00BFED49891CEA48A3
:1008F00000F09AFE0028F8D00121E74800F0BFFD83
:1009000070BD70B505460E46144600BF4FF4003169
:10091000E14800F0ABFE0028F8D10121DE4800F0EC
:10092000A2FD00BFDD49DC4800F07EFE0028F9D0C2
:100930000022D021D84800F0ECFD00BFD849D648AD
:1009400000F072FE0028F9D00121D34800F067FDC5
:100950003146D14800F0D7FD00BFD149891CCE48AF
:1009600000F062FE0028F8D00121CB4800F07BFDAA
:1009700000BFCA49C84800F057FE0028F9D001223C
:10098000D021C54800F0C5FD00BFC449491CC2487C
:1009900000F04AFE0028F8D016E0012C07D1002113
:1009A000BD4800F078FD0121BB4800F068FDBB495F
:1009B0003F31B94800F038FE30B1B74800F0A5FD2E
:1009C00028706D1C601E84B2002CE6D10121B24853
:1009D00000F061FD70BD2DE9F04107460D46164659
:1009E0001C46324629462046FFF78BFF0020BDE813
:1009F000F08170B506460D46144629462046FFF79D
:100A000049FF002070BDF8B506460F4614461D4646
:100A10006B46012239463046FFF7DDFF2DB101203C
:100A2000A0409DF80010084305E00120A0409DF87B
:100A3000001021EA0000C0B200909DF80020394665
:100A40003046FFF7D6FF08B9012000E000209549A5
:100A50000870F8BD2DE9F8430746884614461D4640
:100A6000089E6B46012241463846FFF7B4FF601CE2
:100A7000FF2101FA00F0C4F108012944491EFF22B8
:100A80000A41104300F0FF09C5F1080006FA00F022
:100A9000C6B2C4F1070006419DF8000000EA090053
:100AA00000909DF80000304300909DF800204146E2
:100AB0003846FFF79EFFBDE8F88310B5044623468D
:100AC00006226B216820FFF79EFF10BD38B5044653
:100AD000032302226B2168200094FFF7BBFF38BD7F
:100AE00070B504464FF47A7090FBF4F0401EC5B226
:100AF0002A4619216820FFF77CFF70BD38B50446EF
:100B0000022304221B2168200094FFF7A3FF00208A
:100B1000032307221B2100906820FFF79BFF38BDAD
:100B200038B50446022304221C2168200094FFF7F4
:100B300091FF0020032307221C2100906820FFF76B
:100B400089FF38BD38B50446032302221A216820E4
:100B50000094FFF77FFF38BD10B5044623460522F9
:100B60006A216820FFF74FFF10BD10B504462346E9
:100B7000012237216820FFF746FF10BD70B50446FB
:100B800001252A2C15D006DC052C0CD00A2C0CD003
:100B9000142C16D10BE0622C0DD0BC2C0DD0B4F56A
:100BA000807F0ED10BE006250DE005250BE0042526
:100BB00009E0032507E0022505E0012503E0002503
:100BC00001E0032500BF00BF0020FFF776FF0A20E9
:100BD000FFF7F4FA0320FFF779FF0A20FFF7EEFA98
:100BE0004FF47A70FFF77CFF0A20FFF7E7FA032043
:100BF000FFF784FF0A20FFF7E1FA0220FFF790FFDA
:100C00000A20FFF7DBFAE8B2FFF79CFF0A20FFF7A4
:100C1000D5FA0020FFF7A0FF0A20FFF7CFFA012046
:100C2000FFF7A3FF0A20FFF7C9FA1E48007808B9AA
:100C3000012070BD0020FCE710B5044623460E22BB
:100C40003B21D020FFF7C7FE6078217840EA0120E1
:100C500000B2E081E078A17840EA012001B221826F
:100C60006079217940EA012001B26182607A217ABB
:100C700040EA012000B2A082E07AA17A40EA012095
:100C800001B2E182607B217B40EA012001B2218335
:100C9000E079A17908E00000005400400100030061
:100CA000820007001000002040EA012000B26083AB
:100CB00010BD00000648804706480047FEE7FEE7F3
:100CC000FEE7FEE7FEE7FEE7FEE7FEE7FEE7FEE7FC
:100CD000B70D0008310100080CB50020019000900C
:100CE0006C48006840F480306A49086000BF694879
:100CF000006800F4003000900198401C01900098BA
:100D000018B90198B0F5A06FF1D16248006800F4FD
:100D1000003010B10120009001E000200090009808
:100D2000012843D15C48006840F010005A4908602F
:100D30000846006820F0030008600846006840F09C
:100D400002000860534840685249486008464068BD
:100D500048600846406840F4806048600846406843
:100D600020F47C1048600846406840F4E810486071
:100D70000846006840F08070086000BF4548006881
:100D800000F000700028F9D04248406820F00300CD
:100D9000404948600846406840F00200486000BF93
:100DA0003C48406800F00C000828F9D10CBD10B593
:100DB000FFF792FF10BD10B53648006840F0010003
:100DC0003449086008464068344908403149486061
:100DD00008460068324908402E4908600846006805
:100DE00020F4802008600846406820F4FE00486037
:100DF0004FF41F008860FFF7DAFF4FF000602949C9
:100E0000086010BD10B5002100200022214B5B6856
:100E100003F00C0121B1042906D0082928D107E0EC
:100E2000214B224C236027E01F4B204C236023E002
:100E3000184B5B6803F47010164B5B6803F4803248
:100E4000022303EB904022B9194B4343174C236014
:100E50000DE0104B5B6803F4003323B1144B4343A4
:100E6000124C236003E0104B4343104C236003E01B
:100E70000D4B0E4C236000BF00BF064B5B68C3F3F5
:100E800003130C4CE15C094B1B68CB40074C2360FF
:100E900010BD000000100240002002400000FFF8DA
:100EA000FFFFF6FE08ED00E000127A0014000020BB
:100EB00000093D001800002031490143314A11600A
:100EC000704770B5002100230F22C47804B32D4C65
:100ED000246804F4E064C4F5E064210AC1F1040369
:100EE000CA40447804FA03F184781440214309018C
:100EF000254C0678A155047804F01F050124AC4068
:100F000005786D11AD0005F1E025C5F8004109E057
:100F1000047804F01F050124AC401C4D06787611BE
:100F200045F8264070BD1A4A0A400243154B1B1F64
:100F30001A60704739B1134A121D12680243114BEF
:100F40001B1D1A6006E00F4A121D126882430D4BEA
:100F50001B1D1A607047042808D14FF0E021096971
:100F600041F004014FF0E022116107E04FF0E02171
:100F7000096921F004014FF0E0221161704700007F
:100F80000000FA050CED00E000E400E080E100E084
:100F900080FFFF1F10B50446CC48844208D10121D0
:100FA000042000F02FFD0021042000F02BFD46E07E
:100FB000C748844208D10121082000F023FD002108
:100FC000082000F01FFD3AE0C248844208D1012108
:100FD000102000F017FD0021102000F013FD2EE07E
:100FE000BD48844208D10121202000F00BFD0021E2
:100FF000202000F007FD22E0B848844208D10121FA
:10100000402000F0FFFC0021402000F0FBFC16E037
:10101000B348844208D10121802000F0F3FC002174
:10102000802000F0EFFC0AE0AE48844207D10121A5
:10103000801500F0E7FC0021A01500F0E3FC10BDD6
:1010400010B50121084600F0DDFC0021012000F070
:10105000D9FC10BD2DE9F0410246002500260020F4
:1010600000230024002791F803C00CF00F0591F82D
:1010700003C00CF0100CBCF1000F03D091F802C0BB
:101080004CEA050591F800C0BCF1000F31D014689E
:1010900000202BE04FF0010C0CFA00F3B1F800C077
:1010A0000CEA03069E4220D183004FF00F0C0CFA8D
:1010B00003F7BC4305FA03FC4CEA040491F803C0AF
:1010C000BCF1280F06D14FF0010C0CFA00FCC2F85D
:1010D00014C00AE091F803C0BCF1480F05D14FF0ED
:1010E000010C0CFA00FCC2F810C0401C0828D1D337
:1010F0001460B1F800C0BCF1FF0F34DD546800206B
:101100002EE000F1080C4FF0010808FA0CF3B1F8DA
:1011100000C00CEA03069E4221D183004FF00F0C61
:101120000CFA03F7BC4305FA03FC4CEA040491F8FB
:1011300003C0BCF1280F05D100F1080C08FA0CF827
:10114000C2F8148091F803C0BCF1480F07D100F138
:10115000080C4FF0010808FA0CF8C2F81080401C87
:101160000828CED35460BDE8F0814FF6FF710180AE
:10117000022181700421C1707047024600209368EB
:101180000B400BB1012000E0002070470146886849
:1011900080B2704702460020D3680B400BB101209B
:1011A00000E0002070470146C86880B270470161C6
:1011B0007047416170470AB1016100E041617047C9
:1011C000C16070474FF480320A438261816182615D
:1011D00082698269704702460020434B18684FF6C7
:1011E0008073184040EA021008433F4B1860704774
:1011F0003E49C8617047F0B50A460023002400212B
:10120000002500F00046B6F1004F02D1364EF169DC
:1012100001E0354E7168C0F3034583B200F4401617
:10122000B6F5401F08D121F070612F4E766826F088
:1012300070662D4F7E6012E000F48016B6F5801FB8
:1012400006D1032606FA05F4A14341F0706106E0D9
:10125000460D360103FA06F6B14341F0706122B142
:10126000460D360103FA06F6314300F00046B6F1AA
:10127000004F02D11C4EF16101E01B4E7160F0BDC8
:1012800030B500228B071C0F0F2303FA04F2164B14
:1012900008338C1053F824309343134C08348D10CA
:1012A00044F8253023468C1053F824308C07240F43
:1012B00000FA04F423430C4C08348D1044F8253014
:1012C00030BD0A49DC310860704700000008014069
:1012D000000C0140001001400014014000180140C2
:1012E000001C01400020014000000140000020429D
:1012F00010B50446F748844209D10121480500F0A1
:101300008EFB00214FF4001000F089FB08E0012162
:10131000880500F084FB00214FF4800000F07FFB83
:1013200010BD2DE9F04385B004460D460026B146B8
:101330000427DFF8A483A6884FF6C07006406846ED
:1013400000F0D9FADDF80880E448B8FBF0F01FFAA5
:1013500080F946EA0906A68020884FF6FE7108400B
:1013600020800026DE49286888420CD82868400082
:10137000B8FBF0F087B2042F00DA04273E4309F1EE
:101380000100208427E0E8884BF6FF71884206D1EF
:10139000286800EB4000B8FBF0F087B209E028684D
:1013A00000EBC00101EB0010B8FBF0F087B247F48E
:1013B0008047C7F30B0008B947F0010747F4004026
:1013C00006434FF4967009FB00F04FF47A7190FBDE
:1013D000F1F0401C2084A683208840F0010020808A
:1013E00026884FF6F5300640A888698908430643E9
:1013F0002680A88929890843208105B0BDE8F083AB
:1014000041F288310160002181804BF6FF71C1807B
:101410000021018141814FF480418181704721B1D8
:10142000028842F00102028004E002884FF6FE7357
:101430001A400280704721B1828842F400628280A3
:1014400004E082884FF2FF731A408280704721B116
:10145000828842F48052828004E082884EF6FF73D4
:101460001A408280704721B1028842F48072028063
:1014700004E002884FF6FF631A400280704721B1F2
:10148000028842F40072028004E002884FF6FF53A3
:101490001A400280704721B1028842F480620280C3
:1014A00004E002884FF6FF331A40028070470A4674
:1014B000002181894FF60173194002F0FE031943A0
:1014C0008181704721B1828942F00102828104E06A
:1014D00082894FF6FE731A408281704721B10288DB
:1014E00042F04002028004E002884FF6BF731A40C7
:1014F000028070471AB183880B43838002E083889F
:101500008B4383807047018270470146088AC0B2CE
:10151000704712B141F0010102E04FF6FE7319402D
:101520000182704708B502460020009000920098A2
:10153000084400900098008808BD21B1028842F458
:101540000042028003E00288C2F30E02028070476C
:10155000B1F5006F04D1028842F40062028004E019
:1015600002884FF2FF731A4002807047B1F5005FA6
:1015700004D1028842F40052028004E002884DF651
:10158000FF731A400280704721B1028842F48052F2
:10159000028004E002884EF6FF731A400280704712
:1015A000B1F5006F04D1028842F40062028004E0C9
:1015B00002884FF2FF731A400280704721B10288FF
:1015C00042F02002028004E002884FF6DF731A40E6
:1015D000028070470146088B0012704721B10288D3
:1015E00042F01002028004E002884FF6EF731A40C6
:1015F0000280704721B9028842F08002028004E034
:1016000002884FF67F731A4002807047B1F5804F11
:1016100005D0828B4BF6FF731A40828303E0828BE6
:1016200042F480428283704770B502460024002550
:1016300000230020958A138B1B0445EA030626F03D
:101640007F4404EA01068E4201D1012000E000201F
:1016500070BD10B501460020002300228B8A0A8B42
:10166000120443EA020424F07F4010BD0CB5024688
:10167000002000230193009300920B0F019321F0AF
:101680007F41019B1BB1009B1433009303E0090CC5
:10169000009B18330093009B1B680B400BB101208B
:1016A00000E000200CBD002221F07F42D343838262
:1016B000704730B5024600200023948801F0E065B1
:1016C00004EA154321F07F41948A0C4054B14BB198
:1016D000012008E00054004000127A0040420F0050
:1016E000A0860100002030BD002221F07F42D343BC
:1016F00083827047DF48006840F00100DD490860E0
:1017000008464068DC490840DA49486008460068F5
:10171000DA490840D74908600846006820F480206C
:1017200008600846406820F4FE0048604FF41F003F
:1017300088607047CF49096821F48031CD4A116033
:101740001146096821F480211160B0F5803F03D073
:10175000B0F5802F0ED106E0C649096841F480310A
:10176000C44A116007E0C349096841F4A021C14A95
:10177000116000E000BF00BF704710B501460022B5
:10178000002300204A11012A02D1BA4C236806E046
:10179000022A02D1B74C236A01E0B64C636A01F019
:1017A0001F02012494401C400CB1012000E00020E5
:1017B00010BD38B5002000900024002500BF312066
:1017C000FFF7DBFF05460098401C00900098B0F53D
:1017D000A06F01D0002DF2D03120FFF7CEFF08B16D
:1017E000012400E00024204638BD01460020A14A23
:1017F000106820F0F80040EAC10010607047A0496E
:1018000008607047024600209A4B586820F47C100C
:1018100042EA01031843974B58607047984908669D
:10182000704701460020934A506820F003000843A7
:10183000506070478F48406800F00C0070470146C8
:1018400000208C4A506820F0F00008435060704738
:1018500001460020874A506820F4E0600843506049
:10186000704701460020834A506820F4605040EAE7
:10187000C1005060704729B17E4A527A02437D4BC5
:101880005A7204E07B4A527A82437A4B5A7270470A
:101890007B49D8310860704701460020754A50687E
:1018A00020F440400843506070470021714A2032C4
:1018B0001170704A82F82010012802D004280AD141
:1018C00004E001216B4A2032117005E00521694ACC
:1018D0002032117000E000BF00BF70476949086006
:1018E00070476449096A0143624A11627047654959
:1018F00044390860704730B50021002200240023DD
:101900005C4D6D6805F00C0121B1042905D0082952
:1019100023D105E05C4D056022E05B4D05601FE0D2
:10192000544D6D6805F47012524D6D6805F48034A5
:10193000022505EB92421CB9544D554305600BE05E
:101940004C4D6D6805F400351DB1504D5543056093
:1019500002E04D4D5543056002E04B4D056000BF70
:1019600000BF444D6D6805F0F0010909484D6B5CFE
:101970000568DD4045603F4D6D6805F4E061090A8A
:10198000434D6B5C4568DD4085603A4D6D6805F4FC
:101990006051C90A3E4D6B5C4568DD40C560354D00
:1019A0006D6805F44041890B3A4D6B5CC568B5FB29
:1019B000F3F5056130BD29B12E4A526902432D4B22
:1019C0005A6104E02B4A526982432A4B5A6170479C
:1019D00029B1284A92690243264B9A6104E0254ABC
:1019E00092698243234B9A61704729B1214AD26997
:1019F0000243204BDA6104E01E4AD26982431D4B48
:101A0000DA61704729B11B4AD2680243194BDA6088
:101A100004E0184AD2688243164BDA60704729B155
:101A2000144A12690243134B1A6104E0114A126905
:101A30008243104B1A617047124940390860704761
:101A40000F49C86470470B49C87170470948406A1C
:101A500040F0807007494862704701460020054AFF
:101A600092680A400AB1012000E000207047014955
:101A700088727047001002400000FFF8FFFFF6FE7A
:101A8000000042428004424200127A0000093D00F8
:101A9000280000203800002010B50446FB4884428E
:101AA00009D101218803FFF7ADFF00214FF48040E9
:101AB000FFF7A8FF32E0F648844209D1012148042B
:101AC000FFF7ADFF00214FF40030FFF7A8FF25E03E
:101AD000F048844209D101218804FFF7A0FF0021CA
:101AE0004FF48020FFF79BFF18E0EB48844209D1B8
:101AF0000121C804FFF793FF00214FF40020FFF7F6
:101B00008EFF0BE0E548844208D101210805FFF76C
:101B100086FF00214FF48010FFF781FF10BD2DE9F3
:101B2000F04786B005460E460024A24600BFA146F7
:101B30000027B08900B100BF2F462C8A4CF6FF70F9
:101B40000440F08804432C82AC894EF6F310044024
:101B5000B08831890843718908430443AC81AC8A59
:101B60004FF6FF400440B0890443AC8201A8FFF760
:101B7000C2FEC648874202D1DDF810A001E0DDF8C0
:101B80000CA0A88900F4004040B10AEBCA0000EBA9
:101B90000A1031684900B0FBF1F807E00AEBCA000F
:101BA00000EB0A1031688900B0FBF1F86420B8FB43
:101BB000F0F004012009642101FB1089A88900F4D8
:101BC000004040B1322000EBC900B0FBF1F000F062
:101BD0000700044308E0322000EB09106421B0FB49
:101BE000F1F000F00F0004432C8106B0BDE8F0874F
:101BF0004FF41651016000218180C18001810C21C8
:101C0000418100218181704710B502460020108A71
:101C10004FF2FF0318400B884C8823438C882343E2
:101C2000CC8823431843108210BD002101804180DD
:101C30008180C180704721B1828942F40052828143
:101C400004E082894DF6FF731A4082817047F0B537
:101C50000346002400260025002040F66A17B942FA
:101C600000D100BF1846C1F3421401F01F0601273E
:101C700007FA06F5012C01D10C3004E0022C01D149
:101C8000103000E014301AB107682F43076002E0FB
:101C90000768AF430760F0BD1AB1838A0B438382A4
:101CA00002E0838A8B4383827047028A4FF6F07387
:101CB0001A400282028A0A430282704782894FF2E6
:101CC000FF731A40828182890A438281704721B161
:101CD000828942F00202828104E082894FF6FD731C
:101CE0001A4082817047028A4FF6DF731A400282DF
:101CF000028A0A430282704721B1028A42F480427A
:101D0000028204E0028A4BF6FF731A400282704797
:101D1000C1F308028280704701468888C0F308003A
:101D20007047818941F0010181817047028BD2B2F5
:101D30000283028B42EA012202837047028B02F483
:101D40007F420283028B0A430283704721B1828A59
:101D500042F02002828204E0828A4FF6DF731A404A
:101D60008282704721B1828A42F01002828204E0AE
:101D7000828A4FF6EF731A408282704721B1828ABD
:101D800042F00802828204E0828A4FF6F7731A401A
:101D90008282704721B1828942F40042828103E04D
:101DA0008289C2F30E028281704721B1828A42F495
:101DB0000062828204E0828A4FF2FF731A408282BC
:101DC0007047828A4FF6FB731A408282828A0A43E6
:101DD0008282704721B1828A42F00202828204E04C
:101DE000828A4FF6FD731A408282704702460020B5
:101DF000B1F5007F00D100BF13880B400BB101206B
:101E000000E00020704701F40072B2F5007F00D1BD
:101E100000BFCA430280704770B502460024002309
:101E20000025002040F66A16B14200D100BFC1F380
:101E3000421501F01F03012606FA03F3012D02D11A
:101E40009689334006E0022D02D1168A334001E024
:101E5000968A33400C12012606FA04F416883440A0
:101E600013B10CB1012000E0002070BD10B50022BC
:101E7000002340F66A14A14200D100BF0A120124D7
:101E80009440A3B2DC43048010BD00000038014040
:101E90000044004000480040004C0040005000401A
:101EA000F0B480EA0102D40F4200B2EB410F02D23B
:101EB0000246084611464A0042D0C30DDDB2C1F3C6
:101EC000C752AD1A202D35DAC1F3160141F40002D4
:101ED00004B15242C5F1200602FA06F12A4110442B
:101EE000B3EBD05F23D0C4B1012DA0EBC35009DC0C
:101EF000F0BC4FF0004202EAC352DBB200F5000032
:101F000000F0D6B9400000F1807000EBC350A0F1A2
:101F1000807040EAD170490009E0490841EAC07187
:101F2000A0EBC35000F50000400800EBC350F0BC2C
:101F300000F0B5B96142012202EB4101001BF6E756
:101F4000F0BC704781F00041AAE780F00040A7E7AD
:101F500080EA010210B502F00043400022D04A009E
:101F60001FD0010E01EB1261C0F35600C2F35602FE
:101F700040F4000042F40002A0FB022000047F397C
:101F8000140400D0401C50EA124001D44000491E05
:101F9000C2B20C0604EBD010401C4008802A02D0CC
:101FA00003E0002010BD20F00100002900DA00202D
:101FB000184310BD30B480EA010202F0004530F051
:101FC000004221F0004013D090B1C30DD40DC2F3F4
:101FD0001601C0F31600E41A41F4000140F40002B7
:101FE0007D34914201D3641C00E04900002C02DAE8
:101FF00030BC002070474FF400000023914201D311
:10200000891A034340084FEA4101F7D151B1914287
:1020100002D14FF0004105E002D24FF0010101E092
:102020006FF0010103EBC450284430BC00F037B915
:102030002DE9FE4F81EA030404F0004421F0004141
:1020400000944FF0000B23F0004350EA01045ED0EF
:1020500052EA03045BD0C3F30A54C1F30A552C447B
:10206000A4F2F3340194A0FB0254C1F3130141F430
:102070008011C3F3130343F4801301FB024400FBFC
:10208000034E840A970A44EA815447EA8357A4FB23
:10209000076802958D0A05FB07854FEA932C04FB20
:1020A0000C542705029D4FEA065847EA1637B5EB50
:1020B00008056EEB070C870E920E47EA811742EA7D
:1020C0008312A7FB0201B6EB0B0164EB00042B0D9E
:1020D00043EA0C335E1844EB1C50DA465146E7FBEA
:1020E0000201C5F313044FEA0B3343EA14534FEADA
:1020F0000432019C43EA0603A4F10C040294009C00
:10210000CDE900B400F011F903B0BDE8F08F002074
:102110000146F9E72DE9F04D81EA030404F0004B94
:1021200021F0004514464FF0000A23F0004150EA28
:10213000050220D054EA01021DD0C5F30A57024619
:10214000C5F31303C1F31300C1F30A5640F480151D
:1021500043F48013A7EB0608101BD64608F2FD389F
:1021600073EB050002D308F1010801E092185B410E
:10217000B8F1000F03DA00200146BDE8F08D002021
:102180004FF48011064684460EE0171B73EB0507DB
:1021900005D3121B63EB050306434CEA010C490807
:1021A0004FEA300092185B4150EA0107EDD152EA44
:1021B000030012D082EA040083EA0501084305D037
:1021C000101BAB4106D20122002306E000224FF093
:1021D000004302E06FF0010253101AEB06004CEBD3
:1021E000085110EB0A0041EB0B01BDE8F04D00F087
:1021F0008DB8C10F80EAE0700844CA079623002119
:1022000000F056B896230022114600F051B800F0B5
:10221000004220F00040C10DC0F3160040F4000061
:102220007F2901DA00207047962903DCC1F196016D
:10223000C84001E096398840002AF4D040427047F7
:1022400000F0004230F000400AD0C10D01F560718D
:10225000C0F3160042EA0151C2084007114370471B
:1022600000200146704701F0004330B421F00041E6
:1022700050EA010206D00A0DA2F56072C1F3130103
:10228000002A02DC30BC00207047440F44EAC1043D
:10229000C100E01830BC00EBC250AFF30080002951
:1022A000A8BF7047401C490008BF20F001007047DC
:1022B00010B4B0FA80FC00FA0CF050EA010404BF3C
:1022C00010BC704749B1CCF1200421FA04F411FA92
:1022D0000CF118BF012121430843A3EB0C01CB1DD6
:1022E0004FEA00614FEA102042BF002010BC704747
:1022F00000EBC35010440029A4BF10BC7047401C21
:10230000490008BF20F0010010BC704710B5141E32
:1023100073F1000408DA401C41F1000192185B419E
:102320001A4301D120F0010010BD2DE9F04D924675
:102330009B4611B1B1FA81F202E0B0FA80F220328C
:10234000904600F0F9F804460F4640EA0A0041EAD8
:102350000B0153465A46084313D0114653EA010075
:1023600019D0C8F14002504600F0F5F805460E4677
:1023700050465946424600F0DFF8084305D0012098
:1023800004E020463946BDE8F08D0020054346EACA
:10239000E0762C4337430A986305E40AA0EB080073
:1023A0000022FD0A44EA47540A3002D500200146C3
:1023B000E9E7010510196941DDE90845001969419E
:1023C000BDE8F04DA2E72DE9FE4F804681EA03000B
:1023D000C00F0C46009021F0004123F00045B8EBFF
:1023E0000200A94105D24046214690461C460B46B4
:1023F000024623F00040104347D0270DC7F30A00E0
:10240000C3F30A510290401A019040286BDAC3F3DB
:10241000130040F4801B0098924620B10023D2EBB9
:10242000030A63EB0B0B01985946C0F1400250467A
:1024300000F082F806460D4650465946019A00F0D3
:102440009AF810EB08006141002487EA115284EAEF
:10245000E7731A4340D0009A62B3019A012A4FEA07
:10246000075215DC001B61EB02014FF0004202EA4B
:102470000752CDE90042001C41F5801132462B463F
:10248000FFF753FF03B0BDE8F08F40462146F9E760
:10249000001B61EB0201001C41F5801300185B4139
:1024A0002018A2F5001747EB030140EAD570B619D2
:1024B0006D4111E06D084FEA360645EAC0754FEAF6
:1024C0000752001B61EB0201001C41F58011490815
:1024D0004FEA30000019514132462B4603B0BDE8A7
:1024E000F04FFFF713BF0098012240000023D0EB0C
:1024F000020263EBE073009821464FEAE074B8EB08
:10250000000061EB0401E9E783F000435BE781F041
:10251000004158E7064C074D06E0E06840F0010333
:1025200094E8070098471034AC42F6D3FDF704FE58
:10253000082C0008282C0008202A04DB203A00FA86
:1025400002F1002070479140C2F1200320FA03F30A
:10255000194390407047202A04DB203A21FA02F008
:102560000021704721FA02F3D040C2F120029140CD
:10257000084319467047202A06DBCB17203A41FA58
:1025800002F043EAE07306E041FA02F3D040C2F100
:102590002002914008431946704770B521F000436E
:1025A00003430CD0C1F30A550024D5EB040564EBBA
:1025B0000403D617AD1AB34102DB0020014670BDFB
:1025C000201841EB025170BD0FB4054B10B503A9A3
:1025D000044A029800F08DF810BC5DF814FB00006E
:1025E000F30600083C000020490050EAC12018BF53
:1025F00004204A0D18BF40F0010040F2FF72B2EB18
:10260000515F08BF40F00200012808BF0520704755
:102610002DE9F0414F1E00EBC7010446D1E900014E
:1026200015461E4637F006020DD02A463346FFF700
:10263000FFFC7F1E04EBC703D3E90023FFF7C3FEB3
:1026400037F00602F1D1022F25D0042F13D0062F28
:1026500018BFBDE8F0812A463346FFF7E9FCD4E90C
:102660000A23FFF7B0FE2A463346FFF7E1FCD4E920
:102670000823FFF7A8FE2A463346FFF7D9FCD4E922
:102680000623FFF7A0FE2A463346FFF7D1FCD4E924
:102690000423FFF798FE2A463346FFF7C9FCD4E926
:1026A0000223FFF790FE2A463346FFF7C1FCD4E928
:1026B0000023BDE8F041FFF786BE0122FFF76DBFA2
:1026C000FFF781BE024A00201107FFF766BF000036
:1026D00001FDFFFF02E008C8121F08C1002AFAD15D
:1026E00070477047002001E001C1121F002AFBD192
:1026F00070472DE9F84F99469246884605460027CF
:1027000006E025280AD051464A4690476D1C7F1C9A
:1027100028780028F5D13846BDE8F88F002315F851
:10272000011F18462E2915D115F8011F04232A2947
:102730000DD06FF02F022978A1F13004092C09D8AF
:1027400000EB800002EB400008446D1CF3E758F8F2
:10275000040B6D1C2A78002ADDD0632A07D0732A67
:102760000FD0104651464A4690477F1C2AE018F881
:10277000042B8DF8002000218DF801106E460121F8
:1027800003E058F8046B4FF0FF315A074FF0000494
:1027900001D409E0641C84420BDA8C42FADB325D1E
:1027A000002AF7D105E0641C8C42FCDB305D002878
:1027B000F9D1274404E016F8010B51464A469047E8
:1027C000641EF8D26D1CA3E72DE9F84F04460D46B0
:1027D00021F0004000917349814211DC7249884226
:1027E00001DC06D12CB120462946BDE8F84FFFF7A1
:1027F00064BF6E48002DCCBF6D496E49BDE8F88FAF
:102800006D49814211DD6D498142D8BF4FF0FF36DD
:102810006DDD20462946FFF7E7FE042808BFFFF7D5
:1028200051FF20462946BDE8F88F6549654F25F0E0
:102830000045814233DD6449814219DD002632467C
:102840004FF0804320462946FFF7BDFD80468A466B
:10285000012220462946FFF7A0FE00223B46FFF753
:1028600053FE42465346FFF755FC04460D463EE0F4
:1028700001260022BA463B4620462946FFF7A3FD23
:1028800080460F460022534620462946FFF73CFE6D
:1028900042463B46FFF73EFC04460D4627E04B49C7
:1028A00081421BDDDFF828A1022600225346204684
:1028B0002946FFF7BDFB00223B46FFF784FD80461B
:1028C0000F460022534620462946FFF71DFE42468A
:1028D0003B46FFF71FFC04460D4608E00326224650
:1028E0002B4600203B49FFF715FC04460D462246C7
:1028F0002B4610461946FFF79BFB8B468246024645
:102900000B46FFF795FB07460246334888460B46C1
:1029100006217844FFF77CFE52465B46FFF788FBB2
:1029200082462E488B463A46434605217844FFF7B7
:102930006FFE3A464346FFF77BFB02460B46002EEE
:10294000504659460CDAFFF73EFD22462B46FFF76C
:102950006FFB01B022462B46BDE8F04FFFF7D7BD15
:10296000FFF731FD22462B46FFF762FB1C4A7A44F3
:1029700002EBC603D3E90023FFF7C6FD22462B4630
:10298000FFF7C2FD174A7A4402EBC603D3E90023DE
:10299000FFF7BDFD009A002AB8BF81F00041BDE8F5
:1029A000F88F0000000010440000F07F182D445400
:1029B000FB21F93FFB21F9BF0000DC3F0000203E76
:1029C0000000F33F0000F03F0000E63F00800340BE
:1029D0000000F83F0000F0BFBA02000078020000DB
:1029E00016020000DE0100002DE9F04D9446CCF106
:1029F000000423F000464CEA0404524F46EAD47423
:102A00009A46884621F00042BC4206D8454240EA38
:102A1000050442EAD474BC4204D9BDE8F04D6246D4
:102A2000FFF74EBEAAF14055A5F17F6555EA0C04AB
:102A30000BD0022404EAAA74434DDFF810E144EA03
:102A4000D87452EA000B04D00CE0BDE8F04DFFF75B
:102A5000BBBE002C14BF012CBDE8F08D022C30D081
:102A6000032C32D056EA0C0B0AD0BE4220D1BA4217
:102A700009D126F0804622F080423346114617E005
:102A800000291ADB25E0DFF8C8B0FB44002C04BFA6
:102A9000DBE90001BDE8F08D012C02BFDBE900019C
:102AA00081F00041BDE8F08D022C0AD0032C0CD03F
:102AB000BA4212D1B8F1000F0BDA23482549BDE81C
:102AC000F08D28462449BDE8F08D28467146BDE8C2
:102AD000F08D1D482149BDE8F08D921B12153C2A4E
:102AE000C4BF19481D490EDCBAF1000FBEBF12F178
:102AF0003C0F0020014606DB6246FFF70BFB21F08E
:102B00000041FFF761FE002C08BFBDE8F08D012CED
:102B100004BF81F00041BDE8F08D114A114B022C39
:102B200007D0FFF7F1FC2A46BDE8F04D0A4BFFF74E
:102B3000EBBCFFF7E9FC2A46BDE8F04D064BFFF77A
:102B4000E6BC00000000F07F182D4454FB2109C0B2
:102B500072010000FB21F9BFFB210940FB21F93F75
:102B6000075C143326A6A13C4FBB610567ACDD3F73
:102B7000182D4454FB21E93F9BF681D20B73EF3FA4
:102B8000182D4454FB21F93FE2652F227F2B7A3C1C
:102B9000075C143326A6813CBDCBF07A8807703CD5
:102BA000075C143326A6913CC4EB98999999C9BF48
:102BB000711623FEC671BCBF6D9A74AFF2B0B3BF7D
:102BC0009AFDDE522DDEADBF2F6C6A2C44B4A2BF3D
:102BD0000D5555555555D53FFF8300922449C23FA9
:102BE0006E204CC5CD45B73F513DD0A0660DB13FDD
:102BF000EB0D76244B7BA93F11DA22E33AAD903FEF
:102C00000000000000000000282C00080000002048
:102C100040000000D4260008682C00084000002076
:102C200010040000E426000800000000000000007E
:102C300000000000000000000000000000A24A04A4
:102C4000000000000000000001020304060708095C
:102C50000000000001020304010203040607080942
:082C6000020406080000000058
:0400000508000131BD
:00000001FF
