:020000040800F2
:10000000200600204D100008490300084B0300089B
:100010004F030008530300085703000800000000C6
:100020000000000000000000000000005B0300086A
:100030005D030008000000005F0300086103000882
:1000400067100008671000086710000867100008B4
:1000500067100008671000086710000867100008A4
:100060006710000867100008671000086710000894
:100070006710000867100008671000086710000884
:100080006710000867100008671000086710000874
:100090006710000867100008671000086710000864
:1000A0006710000867100008671000086710000854
:1000B0006710000867100008671000086710000844
:1000C0006710000867100008671000086710000834
:1000D00067100008C50A00086710000867100008CC
:1000E0006710000867100008671000086710000814
:1000F0006710000867100008671000086710000804
:1001000067100008671000086710000867100008F3
:1001100067100008671000086710000867100008E3
:1001200067100008671000086710000867100008D3
:10013000DFF80CD002F032FC00480047150300083D
:10014000200600206749086000BF66490968002949
:10015000FBD170476348006828B162480068401EC0
:10016000604908602CE060484088401C00B25E494D
:10017000488008468088401C00B288800846C088B5
:10018000401C00B2C88008460089401C00B20881AB
:1001900008464089401C00B2488108460088012872
:1001A00004D108468089401C00B2888101204E4954
:1001B00008804C480068002802DA0020494908609D
:1001C000704700204849088048808880C88008819E
:1001D0004881888170477047704770472DE9F04F1C
:1001E0008FB005200E900E9800F07BFB3F49886889
:1001F00002F080F904460D463C49486802F07AF95D
:1002000006460F463949086802F074F98046894667
:100210003749886802F06EF982468B46344948684F
:1002200002F068F9CDE90C013149086802F062F981
:10023000CDE902ABCDE90489CDE90667CDE90845F2
:10024000CDE90A01DDE90C01CDE9000129A0DDE9D4
:100250000A2302F0FDFB0FB0BDE8F08F10B50224B9
:10026000204600F036FB10BD704710B51E480088D0
:10027000012836D1FFF7F8FF1B48B0F90200022829
:1002800004DB002018494880FFF7E8FF1648B0F962
:100290000400052804DB002013498880FFF79EFF37
:1002A0001148B0F906000A2804DB00200E49C88076
:1002B000FFF793FF0C48B0F90800142804DB002076
:1002C00009490881FFF788FF0748B0F90A0032287A
:1002D00004DB002004494881FFF77DFF002002492C
:1002E000088010BD000000204800002010020020FF
:1002F000040200204759524F3A25662025662025E2
:10030000663B20416E676C653A2566202566202590
:10031000660A000000F028F80549086008460068F1
:1003200010B104A002F094FB01E0FFF79EFFFCE790
:1003300004000020D3B2BCFEB3F5CABCBBAFB4E628
:10034000D4DACECACCE20A00704700BFFEE700BF95
:10035000FEE700BFFEE700BFFEE77047704770474B
:1003600010B5FFF7F7FE10BD10B5002400F03AFB02
:1003700000F077FB00F020FCFFF723FF00F0E8FB24
:10038000052000F0FBF8044600F08EFA00F0F4FAC5
:10039000E0B210BD002242608260754AC260754AB8
:1003A00002614FF07C524261012202760022C2615A
:1003B000026242628262C262026342638263C26319
:1003C000002105E0002300F1400242F82130491CE1
:1003D0000429F7DB4FF07E520265002343658365F5
:1003E0001346C36570472DE9F04704460D4616468F
:1003F0001F46384602F060F881465F49484601F0E2
:10040000A5FF81462846E16901F068FF824649461A
:1004100001F06AFF8046616801F00EFF6060616D67
:10042000E06801F05BFF8046A16D01F057FF20649A
:10043000E06D80F000416164E06D80F00041A164F6
:100440002169E1644946206C01F04EFF8046216D30
:1004500001F0F2FE20654946606C01F045FF8046E0
:10046000616D01F0E9FE60654946A06C01F03CFF5A
:100470008046A16D01F0E0FEA0654946E06C01F008
:1004800033FF8046E16D01F0D7FEE065207E02F08B
:1004900013F88046216D01F027FF6062207E02F094
:1004A0000BF88046616D01F01FFFA062207E02F014
:1004B00003F88246616A01F017FF8046616901F026
:1004C000BBFEE062E16A606A01F040FFA063D4E92C
:1004D0000A0101F03BFFE0633046616801F0FEFE77
:1004E0002062216AA06B01F0FFFE8046616801F086
:1004F000A3FE6060216AE06B01F0F6FE8046E169D0
:1005000001F09AFEE0612846E16901F0E7FEA06093
:10051000606A2063207E01F0CFFF8046616D01F0AC
:10052000E3FE6063216BA06B01F0DEFE8046216D6F
:1005300001F0D7FE2065D4E90D1001F0D5FE80460C
:10054000616D01F0CEFE6065216BE06B01F0CCFEC9
:100550008046A16D01F0C5FEA065616BE06B01F006
:10056000C3FE8046E16D01F0BCFEE065BDE8F087AA
:100570006F12833AA69B443B00007A4410B50446B0
:10058000204600F0C7FC10BD2DE9F04704460D469B
:10059000B4F91A0001F087FF8146BB48016848465C
:1005A00001F09CFE0746284601F086FF8146B749C8
:1005B00001F09AFE8046394601F096FE0646B248A2
:1005C0000168304601F038FEAF490860B049AE48D6
:1005D000006801F0BBFE0646AE4901F02DFEBDE805
:1005E000F0872DE9F04786B082460C460020039044
:1005F00004900590009001900290A748006800EBDD
:10060000400104F1340000EB4100DAF80E10016003
:10061000BAF812108180A048006800EB400104F194
:10062000700000EB4100DAF814100160BAF81810FD
:10063000818099480068401C974908600846006816
:10064000092801DD002008604FF0000957E009EBA0
:10065000490204F1340131F9120001F024FF05468A
:10066000039901F0E9FD039009EB490204F134011B
:1006700001EB4201B1F9020001F015FF05460499B2
:1006800001F0DAFD049009EB490204F1340101EBB9
:100690004201B1F9040001F006FF0546059901F099
:1006A000CBFD059009EB490204F1700131F912000C
:1006B00001F0F9FE0546009901F0BEFD009009EB3E
:1006C000490204F1700101EB4201B1F9020001F0AD
:1006D000EAFE0546019901F0AFFD019009EB4902E0
:1006E00004F1700101EB4201B1F9040001F0DBFEFD
:1006F0000546029901F0A0FD029009F10109B9F146
:100700000A0FA4DB039801F0F5FE07460022634BB5
:1007100001F05AFE054601F000FF2060049801F048
:10072000E9FE074600225D4B01F04EFE054601F052
:10073000F4FE6060059801F0DDFE07460022574B8D
:1007400001F042FE054601F0E8FEA060009801F0CD
:10075000D1FE05460022514B01F036FE074601F05E
:10076000DCFEE060019801F0C5FE054600224B4B1F
:1007700001F02AFE074601F0D0FE2061029801F048
:10078000B9FE05460022454B01F01EFE074601F06A
:10079000C4FE60614249206801F0A6FDE061404965
:1007A000606801F0A1FD20623D49A06801F09CFD58
:1007B00060623C49E06801F097FDA0623949206918
:1007C00001F092FDE0623749606901F08DFD206320
:1007D00006B0BDE8F0872DE9F04106460C46154607
:1007E000304600F0F5FB21463046FFF7FAFE294679
:1007F0003046FFF7C9FE074601F063FE00B22083D2
:10080000BDE8F0812DE9F05F82468B46DAF8000002
:1008100001F070FE06460F46DAF8040001F06AFEA9
:10082000804632463B4602F013FF044601F075FE57
:10083000CBF80800DAF8040001F05CFE04460D462F
:10084000DAF8080001F056FE064622462B4602F072
:10085000FFFE804601F061FECBF80000DAF80800E8
:1008600001F048FE06460F46DAF8000001F042FEAD
:10087000044632463B4602F0EBFE804601F04DFE58
:10088000CBF80400BDE8F09F08000020C3F5C84085
:100890000000AA43000012420C0000200000244087
:1008A000F700753EFD007A3D10B50020294908602B
:1008B0004860886028490860486088602749086067
:1008C000486088602648FFF765FD2648FFF762FD0F
:1008D00010BD10B50446224623492448FFF77BFF8C
:1008E00010BD10B504462048806A1A4908601E48A9
:1008F000C06A48601C48006B88601B48C069164984
:1009000008601948006A48601748406A88601349BF
:100910001148FFF777FF114802680E482346016827
:100920000F48FFF760FD0D4842680A4823464168BA
:100930000C48FFF758FD0A4880680D4908600948CF
:1009400080684860064840680A4908600548406871
:10095000486010BDE0010020EC010020F8010020FB
:100960002001002080010020740000205800002099
:1009700004020020100200204FF47A70174908602A
:100980000A201749086070472DE9F84F06460F46C0
:1009900014462146304601F0A1FC00901048006842
:1009A00001F08AFD8346394601F09EFC81460B48E2
:1009B000006801F081FD8346009901F095FC8246B4
:1009C000494601F039FC804601F07BFD0546294689
:1009D000284600F03AFBBDE8F88F00001000002028
:1009E0001400002000B585B0012144F2040001F09C
:1009F000BBF94FF40070ADF8100018208DF813000B
:100A000003208DF8120004A93A4800F0EFFC4FF4DF
:100A10008060ADF8100004208DF8130004A935485B
:100A200000F0E4FC4FF4E13000900020ADF8040049
:100A3000ADF80600ADF80800ADF80C000C20ADF8DC
:100A40000A0069462C4801F036FA012240F225518D
:100A5000294801F0C8FA0121274801F0B8FA05B089
:100A600000BD08B54FF4E06000F0F2FB25208DF8E2
:100A7000000000208DF8010001208DF802008DF8A3
:100A80000300684600F0E9FB08BD70B504460D465A
:100A9000E1B2194801F008FB00BF8021164801F0BF
:100AA00071FB0028F9D0204670BD10B5044600BF88
:100AB0002021114801F066FB0028F9D00E4801F012
:100AC000F7FA10BD10B540F225510B4801F070FB4C
:100AD00038B1094801F0ECFAC4B2214607A001F090
:100AE000B7FF10BD10B506A001F0B2FF0DA001F0D8
:100AF000AFFF10BD00080140003801402563000031
:100B00000D0A20D5E2CAC7D2BBB8F6B4AEBFDAD65A
:100B1000D0B6CFBDD3CAD5BBD8CFD4CAB5D1E920C2
:100B20000D0A00000D0A20C7EBD4DAB3ACBCB6D670
:100B3000D5B6CBBBF2D5DFB4AEBFDAB5F7CAD4D6E3
:100B4000FACAD6CAE4C8EBD7D6B7FB200D0A000014
:100B500030B5164800684FF47A72B0FBF2F1B1F18B
:100B6000807F01D301201DE021F07F40401E4FF027
:100B7000E022506150170F22002807DA13071D0EDC
:100B80000B4B00F00F04241F1D5503E013071C0E30
:100B9000084B1C5400BF00204FF0E022906107205A
:100BA0001061002008B100BFFEE730BD1C0000202E
:100BB00018ED00E000E400E000B585B00121082058
:100BC00001F0D2F80121480501F0DBF8C020ADF8B2
:100BD000100003208DF812001C208DF8130004A9CA
:100BE0000F4800F003FC0020ADF804004BF6FF7046
:100BF000ADF806000A20ADF808004FF48060ADF8AB
:100C00000A000001ADF80C0006480090694606484D
:100C100000F053FD0121044800F0CDFD05B000BDFA
:100C2000000C0140801A06000054004070B50446D4
:100C30000D460121FE4800F0E2FD00BFFD49FC48E1
:100C400000F0BEFE0028F9D00022D021F84800F0C4
:100C50002CFE00BFF849F64800F0B2FE0028F9D09B
:100C60002946F34800F01BFE00BFF349891CF048F9
:100C700000F0A6FE0028F8D02146ED4800F00FFE57
:100C800000BFED49891CEA4800F09AFE0028F8D020
:100C90000121E74800F0BFFD70BD70B505460E4666
:100CA000144600BF4FF40031E14800F0ABFE0028CD
:100CB000F8D10121DE4800F0A2FD00BFDD49DC488B
:100CC00000F07EFE0028F9D00022D021D84800F0A4
:100CD000ECFD00BFD849D64800F072FE0028F9D0DC
:100CE0000121D34800F067FD3146D14800F0D7FD1F
:100CF00000BFD149891CCE4800F062FE0028F8D020
:100D00000121CB4800F07BFD00BFCA49C84800F074
:100D100057FE0028F9D00122D021C54800F0C5FDBA
:100D200000BFC449491CC24800F04AFE0028F8D060
:100D300016E0012C07D10021BD4800F078FD01210B
:100D4000BB4800F068FDBB493F31B94800F038FEB0
:100D500030B1B74800F0A5FD28706D1C601E84B24C
:100D6000002CE6D10121B24800F061FD70BD2DE9F3
:100D7000F04107460D4616461C4632462946204697
:100D8000FFF78BFF0020BDE8F08170B506460D46E9
:100D9000144629462046FFF749FF002070BDF8B5EC
:100DA00006460F4614461D466B460122394630461C
:100DB000FFF7DDFF2DB10120A0409DF80010084392
:100DC00005E00120A0409DF8001021EA0000C0B21B
:100DD00000909DF8002039463046FFF7D6FF08B94D
:100DE000012000E0002095490870F8BD2DE9F84386
:100DF0000746884614461D46089E6B46012241461A
:100E00003846FFF7B4FF601CFF2101FA00F0C4F17F
:100E100008012944491EFF220A41104300F0FF093E
:100E2000C5F1080006FA00F0C6B2C4F10700064199
:100E30009DF8000000EA090000909DF80000304392
:100E400000909DF8002041463846FFF79EFFBDE820
:100E5000F88310B50446234606226B216820FFF76D
:100E60009EFF10BD38B50446032302226B21682083
:100E70000094FFF7BBFF38BD70B504464FF47A709D
:100E800090FBF4F0401EC5B22A4619216820FFF7F6
:100E90007CFF70BD38B50446022304221B21682064
:100EA0000094FFF7A3FF0020032307221B210090DB
:100EB0006820FFF79BFF38BD38B5044602230422A3
:100EC0001C2168200094FFF791FF002003230722D4
:100ED0001C2100906820FFF789FF38BD38B5044613
:100EE000032302221A2168200094FFF77FFF38BDF8
:100EF00010B50446234605226A216820FFF74FFFFC
:100F000010BD10B504462346012237216820FFF7A3
:100F100046FF10BD70B5044601252A2C15D006DC0D
:100F2000052C0CD00A2C0CD0142C16D10BE0622C02
:100F30000DD0BC2C0DD0B4F5807F0ED10BE0062572
:100F40000DE005250BE0042509E0032507E0022557
:100F500005E0012503E0002501E0032500BF00BFF7
:100F60000020FFF776FF0A20FFF7ECF80320FFF7D9
:100F700079FF0A20FFF7E6F84FF47A70FFF77CFF5D
:100F80000A20FFF7DFF80320FFF784FF0A20FFF7AE
:100F9000D9F80220FFF790FF0A20FFF7D3F8E8B254
:100FA000FFF79CFF0A20FFF7CDF80020FFF7A0FF16
:100FB0000A20FFF7C7F80120FFF7A3FF0A20FFF779
:100FC000C1F81E48007808B9012070BD0020FCE778
:100FD00010B5044623460E223B21D020FFF7C7FE62
:100FE0006078217840EA012000B2E081E078A178C1
:100FF00040EA012001B221826079217940EA012092
:1010000001B26182607A217A40EA012000B2A082B6
:10101000E07AA17A40EA012001B2E182607B217B83
:1010200040EA012001B22183E079A17908E00000C3
:101030000054004001000300820007001800002057
:1010400040EA012000B2608310BD70470648804727
:1010500006480047FEE7FEE7FEE7FEE7FEE7FEE79D
:10106000FEE7FEE7FEE7FEE74F110008310100084A
:101070000CB50020019000906C48006840F480306E
:101080006A49086000BF6948006800F400300090B9
:101090000198401C0190009818B90198B0F5A06F14
:1010A000F1D16248006800F4003010B101200090D6
:1010B00001E0002000900098012843D15C480068BE
:1010C00040F010005A4908600846006820F003000C
:1010D00008600846006840F0020008605348406815
:1010E000524948600846406848600846406840F4F5
:1010F000806048600846406820F47C1048600846DC
:10110000406840F4E81048600846006840F080708D
:10111000086000BF4548006800F000700028F9D062
:101120004248406820F00300404948600846406853
:1011300040F00200486000BF3C48406800F00C00EE
:101140000828F9D10CBD10B5FFF792FF10BD10B5FE
:101150003648006840F0010034490860084640689D
:10116000344908403149486008460068324908401F
:101170002E4908600846006820F480200860084670
:10118000406820F4FE0048604FF41F008860FFF7BD
:10119000DAFF4FF000602949086010BD10B500214A
:1011A00000200022214B5B6803F00C0121B10429CF
:1011B00006D0082928D107E0214B224C236027E0E4
:1011C0001F4B204C236023E0184B5B6803F4701026
:1011D000164B5B6803F48032022303EB904022B984
:1011E000194B4343174C23600DE0104B5B6803F42D
:1011F000003323B1144B4343124C236003E0104BE4
:101200004343104C236003E00D4B0E4C236000BFA2
:1012100000BF064B5B68C3F303130C4CE15C094B46
:101220001B68CB40074C236010BD0000001002403B
:10123000002002400000FFF8FFFFF6FE08ED00E08E
:1012400000127A001C00002000093D002000002050
:1012500031490143314A1160704770B500210023C4
:101260000F22C47804B32D4C246804F4E064C4F560
:10127000E064210AC1F10403CA40447804FA03F18E
:101280008478144021430901254C0678A15504783F
:1012900004F01F050124AC4005786D11AD0005F187
:1012A000E025C5F8004109E0047804F01F05012499
:1012B000AC401C4D0678761145F8264070BD1A4AA0
:1012C0000A400243154B1B1F1A60704739B1134A7D
:1012D000121D12680243114B1B1D1A6006E00F4AD3
:1012E000121D126882430D4B1B1D1A6070470428A3
:1012F00008D14FF0E021096941F004014FF0E022EC
:10130000116107E04FF0E021096921F004014FF07D
:10131000E0221161704700000000FA050CED00E0CA
:1013200000E400E080E100E080FFFF1F10B504460C
:10133000CC48844208D10121042000F02FFD002177
:10134000042000F02BFD46E0C748844208D101216B
:10135000082000F023FD0021082000F01FFD3AE0E6
:10136000C248844208D10121102000F017FD00215D
:10137000102000F013FD2EE0BD48844208D1012169
:10138000202000F00BFD0021202000F007FD22E0CE
:10139000B848844208D10121402000F0FFFC002120
:1013A000402000F0FBFC16E0B348844208D1012144
:1013B000802000F0F3FC0021802000F0EFFC0AE028
:1013C000AE48844207D10121801500F0E7FC0021DE
:1013D000A01500F0E3FC10BD10B50121084600F097
:1013E000DDFC0021012000F0D9FC10BD2DE9F04109
:1013F000024600250026002000230024002791F843
:1014000003C00CF00F0591F803C00CF0100CBCF1F8
:10141000000F03D091F802C04CEA050591F800C016
:10142000BCF1000F31D0146800202BE04FF0010C0C
:101430000CFA00F3B1F800C00CEA03069E4220D17A
:1014400083004FF00F0C0CFA03F7BC4305FA03FCC2
:101450004CEA040491F803C0BCF1280F06D14FF008
:10146000010C0CFA00FCC2F814C00AE091F803C0A9
:10147000BCF1480F05D14FF0010C0CFA00FCC2F88A
:1014800010C0401C0828D1D31460B1F800C0BCF1D2
:10149000FF0F34DD546800202EE000F1080C4FF0FF
:1014A000010808FA0CF3B1F800C00CEA03069E42EA
:1014B00021D183004FF00F0C0CFA03F7BC4305FA5F
:1014C00003FC4CEA040491F803C0BCF1280F05D1D9
:1014D00000F1080C08FA0CF8C2F8148091F803C067
:1014E000BCF1480F07D100F1080C4FF0010808FAD1
:1014F0000CF8C2F81080401C0828CED35460BDE818
:10150000F0814FF6FF710180022181700421C170CA
:1015100070470246002093680B400BB1012000E0A9
:10152000002070470146886880B27047024600205C
:10153000D3680B400BB1012000E00020704701464A
:10154000C86880B2704701617047416170470AB155
:10155000016100E041617047C16070474FF4803223
:101560000A438261816182618269826970470246B1
:101570000020434B18684FF68073184040EA021071
:1015800008433F4B186070473E49C8617047F0B54B
:101590000A46002300240021002500F00046B6F191
:1015A000004F02D1364EF16901E0354E7168C0F34B
:1015B000034583B200F44016B6F5401F08D121F070
:1015C00070612F4E766826F070662D4F7E6012E0B7
:1015D00000F48016B6F5801F06D1032606FA05F43E
:1015E000A14341F0706106E0460D360103FA06F6AC
:1015F000B14341F0706122B1460D360103FA06F69F
:10160000314300F00046B6F1004F02D11C4EF161AB
:1016100001E01B4E7160F0BD30B500228B071C0F3E
:101620000F2303FA04F2164B08338C1053F82430BE
:101630009343134C08348D1044F8253023468C1006
:1016400053F824308C07240F00FA04F423430C4C85
:1016500008348D1044F8253030BD0A49DC3108606B
:101660007047000000080140000C014000100140DC
:101670000014014000180140001C014000200140FE
:10168000000001400000204210B50446F7488442A3
:1016900009D10121480500F08EFB00214FF4001014
:1016A00000F089FB08E00121880500F084FB00219F
:1016B0004FF4800000F07FFB10BD2DE9F04385B0B2
:1016C00004460D460026B1460427DFF8A483A68809
:1016D0004FF6C0700640684600F0D9FADDF8088081
:1016E000E448B8FBF0F01FFA80F946EA0906A68044
:1016F00020884FF6FE71084020800026DE492868C9
:1017000088420CD828684000B8FBF0F087B2042F5C
:1017100000DA04273E4309F10100208427E0E8882D
:101720004BF6FF71884206D1286800EB4000B8FBF9
:10173000F0F087B209E0286800EBC00101EB00106F
:10174000B8FBF0F087B247F48047C7F30B0008B945
:1017500047F0010747F4004006434FF4967009FB39
:1017600000F04FF47A7190FBF1F0401C2084A683C6
:10177000208840F00100208026884FF6F530064092
:10178000A8886989084306432680A88929890843CF
:10179000208105B0BDE8F08341F28831016000216D
:1017A00081804BF6FF71C1800021018141814FF49E
:1017B00080418181704721B1028842F0010202809C
:1017C00004E002884FF6FE731A400280704721B190
:1017D000828842F40062828004E082884FF2FF73C4
:1017E0001A408280704721B1828842F48052828000
:1017F00004E082884EF6FF731A408280704721B160
:10180000028842F48072028004E002884FF6FF638F
:101810001A400280704721B1028842F400720280AF
:1018200004E002884FF6FF531A400280704721B14E
:10183000028842F48062028004E002884FF6FF339F
:101840001A40028070470A46002181894FF60173D1
:10185000194002F0FE0319438181704721B182894A
:1018600042F00102828104E082894FF6FE731A4041
:101870008281704721B1028842F04002028004E078
:1018800002884FF6BF731A40028070471AB18388EE
:101890000B43838002E083888B43838070470182FF
:1018A00070470146088AC0B2704712B141F0010189
:1018B00002E04FF6FE7319400182704708B50246F8
:1018C0000020009000920098084400900098008842
:1018D00008BD21B1028842F40042028003E0028880
:1018E000C2F30E0202807047B1F5006F04D1028886
:1018F00042F40062028004E002884FF2FF731A4053
:1019000002807047B1F5005F04D1028842F40052B2
:10191000028004E002884DF6FF731A40028070478F
:1019200021B1028842F48052028004E002884EF61F
:10193000FF731A4002807047B1F5006F04D102882E
:1019400042F40062028004E002884FF2FF731A4002
:101950000280704721B1028842F02002028004E038
:1019600002884FF6DF731A40028070470146088BE9
:101970000012704721B1028842F01002028004E098
:1019800002884FF6EF731A400280704721B902882F
:1019900042F08002028004E002884FF67F731A4012
:1019A00002807047B1F5804F05D0828B4BF6FF73F4
:1019B0001A40828303E0828B42F480428283704724
:1019C00070B502460024002500230020958A138B61
:1019D0001B0445EA030626F07F4404EA01068E4212
:1019E00001D1012000E0002070BD10B501460020AB
:1019F000002300228B8A0A8B120443EA020424F09B
:101A00007F4010BD0CB502460020002301930093D7
:101A100000920B0F019321F07F41019B1BB1009BB2
:101A20001433009303E0090C009B18330093009BD0
:101A30001B680B400BB1012000E000200CBD002210
:101A400021F07F42D3438382704730B502460020A5
:101A50000023948801F0E06504EA154321F07F41FA
:101A6000948A0C4054B14BB1012008E0005400406E
:101A700000127A0040420F00A0860100002030BD15
:101A8000002221F07F42D34383827047DF48006801
:101A900040F00100DD49086008464068DC49084024
:101AA000DA49486008460068DA490840D7490860C2
:101AB0000846006820F4802008600846406820F44A
:101AC000FE0048604FF41F0088607047CF490968E6
:101AD00021F48031CD4A11601146096821F480213A
:101AE0001160B0F5803F03D0B0F5802F0ED106E035
:101AF000C649096841F48031C44A116007E0C3490E
:101B0000096841F4A021C14A116000E000BF00BF94
:101B1000704710B501460022002300204A11012A17
:101B200002D1BA4C236806E0022A02D1B74C236ADC
:101B300001E0B64C636A01F01F02012494401C408E
:101B40000CB1012000E0002010BD38B5002000904D
:101B50000024002500BF3120FFF7DBFF0546009879
:101B6000401C00900098B0F5A06F01D0002DF2D07D
:101B70003120FFF7CEFF08B1012400E00024204609
:101B800038BD01460020A14A106820F0F80040EA64
:101B9000C10010607047A0490860704702460020ED
:101BA0009A4B586820F47C1042EA01031843974B83
:101BB0005860704798490866704701460020934A6C
:101BC000506820F003000843506070478F48406819
:101BD00000F00C007047014600208C4A506820F04D
:101BE000F00008435060704701460020874A506863
:101BF00020F4E06008435060704701460020834AAB
:101C0000506820F4605040EAC1005060704729B12C
:101C10007E4A527A02437D4B5A7204E07B4A527AE2
:101C200082437A4B5A7270477B49D83108607047BB
:101C300001460020754A506820F440400843506037
:101C400070470021714A20321170704A82F82010CA
:101C5000012802D004280AD104E001216B4A203275
:101C6000117005E00521694A2032117000E000BFC3
:101C700000BF70476949086070476449096A0143B9
:101C8000624A11627047654944390860704730B54F
:101C900000210022002400235C4D6D6805F00C013A
:101CA00021B1042905D0082923D105E05C4D056048
:101CB00022E05B4D05601FE0544D6D6805F4701225
:101CC000524D6D6805F48034022505EB92421CB933
:101CD000544D554305600BE04C4D6D6805F40035DF
:101CE0001DB1504D5543056002E04D4D5543056013
:101CF00002E04B4D056000BF00BF444D6D6805F02C
:101D0000F0010909484D6B5C0568DD4045603F4DB9
:101D10006D6805F4E061090A434D6B5C4568DD4080
:101D200085603A4D6D6805F46051C90A3E4D6B5CA3
:101D30004568DD40C560354D6D6805F44041890B4F
:101D40003A4D6B5CC568B5FBF3F5056130BD29B153
:101D50002E4A526902432D4B5A6104E02B4A5269C4
:101D600082432A4B5A61704729B1284A926902433B
:101D7000264B9A6104E0254A92698243234B9A617B
:101D8000704729B1214AD2690243204BDA6104E04D
:101D90001E4AD26982431D4BDA61704729B11B4A42
:101DA000D2680243194BDA6004E0184AD2688243D1
:101DB000164BDA60704729B1144A12690243134B7B
:101DC0001A6104E0114A12698243104B1A6170478C
:101DD00012494039086070470F49C86470470B4981
:101DE000C87170470948406A40F0807007494862EE
:101DF000704701460020054A92680A400AB1012056
:101E000000E00020704701498872704700100240CE
:101E10000000FFF8FFFFF6FE00004242800442424D
:101E200000127A0000093D00300000204000002030
:101E300010B50446FB48844209D101218803FFF70D
:101E4000ADFF00214FF48040FFF7A8FF32E0F648D5
:101E5000844209D101214804FFF7ADFF00214FF46E
:101E60000030FFF7A8FF25E0F048844209D10121A6
:101E70008804FFF7A0FF00214FF48020FFF79BFFAD
:101E800018E0EB48844209D10121C804FFF793FF11
:101E900000214FF40020FFF78EFF0BE0E54884425D
:101EA00008D101210805FFF786FF00214FF48010BB
:101EB000FFF781FF10BD2DE9F04786B005460E46BD
:101EC0000024A24600BFA1460027B08900B100BF90
:101ED0002F462C8A4CF6FF700440F08804432C8275
:101EE000AC894EF6F3100440B088318908437189FB
:101EF00008430443AC81AC8A4FF6FF400440B089EC
:101F00000443AC8201A8FFF7C2FEC648874202D153
:101F1000DDF810A001E0DDF80CA0A88900F4004075
:101F200040B10AEBCA0000EB0A1031684900B0FB6F
:101F3000F1F807E00AEBCA0000EB0A1031688900EB
:101F4000B0FBF1F86420B8FBF0F004012009642133
:101F500001FB1089A88900F4004040B1322000EB59
:101F6000C900B0FBF1F000F00700044308E03220A4
:101F700000EB09106421B0FBF1F000F00F00044306
:101F80002C8106B0BDE8F0874FF4165101600021A6
:101F90008180C18001810C214181002181817047B4
:101FA00010B502460020108A4FF2FF0318400B883C
:101FB0004C8823438C882343CC88234318431082C6
:101FC00010BD0021018041808180C180704721B116
:101FD000828942F40052828104E082894DF6FF73C7
:101FE0001A4082817047F0B5034600240026002580
:101FF000002040F66A17B94200D100BF1846C1F36D
:10200000421401F01F06012707FA06F5012C01D141
:102010000C3004E0022C01D1103000E014301AB171
:1020200007682F43076002E00768AF430760F0BD11
:102030001AB1838A0B43838202E0838A8B438382B3
:102040007047028A4FF6F0731A400282028A0A43EE
:102050000282704782894FF2FF731A40828182891F
:102060000A438281704721B1828942F00202828153
:1020700004E082894FF6FD731A4082817047028A1C
:102080004FF6DF731A400282028A0A4302827047C7
:1020900021B1028A42F48042028204E0028A4BF6B5
:1020A000FF731A4002827047C1F3080282807047B2
:1020B00001468888C0F308007047818941F001011A
:1020C00081817047028BD2B20283028B42EA0122E5
:1020D00002837047028B02F47F420283028B0A4321
:1020E0000283704721B1828A42F02002828204E09A
:1020F000828A4FF6DF731A408282704721B1828A4A
:1021000042F01002828204E0828A4FF6EF731A4096
:102110008282704721B1828A42F00802828204E002
:10212000828A4FF6F7731A408282704721B1828902
:1021300042F40042828103E08289C2F30E0282816E
:10214000704721B1828A42F40062828204E0828A6E
:102150004FF2FF731A4082827047828A4FF6FB73F8
:102160001A408282828A0A438282704721B1828A1F
:1021700042F00202828204E0828A4FF6FD731A4026
:102180008282704702460020B1F5007F00D100BF77
:1021900013880B400BB1012000E00020704701F4D0
:1021A0000072B2F5007F00D100BFCA4302807047C1
:1021B00070B50246002400230025002040F66A1670
:1021C000B14200D100BFC1F3421501F01F03012647
:1021D00006FA03F3012D02D19689334006E0022D61
:1021E00002D1168A334001E0968A33400C12012650
:1021F00006FA04F41688344013B10CB1012000E053
:10220000002070BD10B50022002340F66A14A142E0
:1022100000D100BF0A1201249440A3B2DC43048021
:1022200010BD00000038014000440040004800405C
:10223000004C004000500040F0B480EA0102D40F8E
:102240004200B2EB410F02D20246084611464A0054
:1022500042D0C30DDDB2C1F3C752AD1A202D35DA1D
:10226000C1F3160141F4000204B15242C5F1200647
:1022700002FA06F12A411044B3EBD05F23D0C4B177
:10228000012DA0EBC35009DCF0BC4FF0004202EA84
:10229000C352DBB200F5000000F0ABB9400000F122
:1022A000807000EBC350A0F1807040EAD17049000B
:1022B00009E0490841EAC071A0EBC35000F50000F5
:1022C000400800EBC350F0BC00F08AB96142012223
:1022D00002EB4101001BF6E7F0BC704781F00041C2
:1022E000AAE780F00040A7E780EA010210B502F0FB
:1022F0000043400022D04A001FD0010E01EB1261C2
:10230000C0F35600C2F3560240F4000042F400024B
:10231000A0FB022000047F39140400D0401C50EAC6
:10232000124001D44000491EC2B20C0604EBD0108A
:10233000401C4008802A02D003E0002010BD20F09D
:102340000100002900DA0020184310BD30B480EAF3
:10235000010202F0004530F0004221F0004013D0AD
:1023600090B1C30DD40DC2F31601C0F31600E41AE8
:1023700041F4000140F400027D34914201D3641C19
:1023800000E04900002C02DA30BC002070474FF416
:1023900000000023914201D3891A034340084FEA09
:1023A0004101F7D151B1914202D14FF0004105E016
:1023B00002D24FF0010101E06FF0010103EBC450C4
:1023C000284430BC00F00CB92DE9F04D81EA03043B
:1023D00004F0004B21F0004514464FF0000A23F0B2
:1023E000004150EA050220D054EA01021DD0C5F395
:1023F0000A570246C5F31303C1F31300C1F30A568B
:1024000040F4801543F48013A7EB0608101BD64652
:1024100008F2FD3873EB050002D308F1010801E072
:1024200092185B41B8F1000F03DA00200146BDE8C5
:10243000F08D00204FF48011064684460EE0171BF5
:1024400073EB050705D3121B63EB050306434CEA48
:10245000010C49084FEA300092185B4150EA01072D
:10246000EDD152EA030012D082EA040083EA0501AA
:10247000084305D0101BAB4106D20122002306E021
:1024800000224FF0004302E06FF0010253101AEBFC
:1024900006004CEB085110EB0A0041EB0B01BDE8C4
:1024A000F04D00F0D4B8C10F80EAE0700844CA07CC
:1024B0009623002100F09DB896230022114600F0DB
:1024C00098B800F0004220F00040C10DC0F31600A3
:1024D00040F400007F2901DA00207047962903DCD0
:1024E000C1F19601C84001E096398840002AF4D035
:1024F0004042704700F0004230F000400AD0C10D69
:1025000001F56071C0F3160042EA0151C2084007AC
:102510001143704700200146704701F0004330B47A
:1025200021F0004150EA010206D00A0DA2F56072C6
:10253000C1F31301002A02DC30BC00207047440FB5
:1025400044EAC104C100E01830BC00EBC25000F006
:1025500047B830B50B46014600202022012409E08F
:1025600021FA02F59D4205D303FA02F5491B04FA4C
:1025700002F52844151EA2F10102F1DC30BD2DE95F
:10258000F05F0546002092469B46884606468146F7
:1025900040241BE0284641464746224600F01FFAE9
:1025A00053465A46C01A914110D311461846224646
:1025B00000F006FA2D1A67EB01084F46224601206B
:1025C000002100F0FDF917EB00094E41201EA4F197
:1025D0000104DFDC484631462A464346BDE8F09F09
:1025E0000029A8BF7047401C490008BF20F0010027
:1025F000704710B4B0FA80FC00FA0CF050EA010405
:1026000004BF10BC704749B1CCF1200421FA04F496
:1026100011FA0CF118BF012121430843A3EB0C016F
:10262000CB1D4FEA00614FEA102042BF002010BCD2
:10263000704700EBC35010440029A4BF10BC704782
:10264000401C490008BF20F0010010BC704710B5C5
:10265000141E73F1000408DA401C41F100019218C5
:102660005B411A4301D120F0010010BD2DE9F04D6E
:1026700092469B4611B1B1FA81F202E0B0FA80F2C3
:102680002032904600F09CF904460F4640EA0A00CA
:1026900041EA0B0153465A46084313D0114653EA08
:1026A000010019D0C8F14002504600F098F90546E3
:1026B0000E4650465946424600F082F9084305D07E
:1026C000012004E020463946BDE8F08D0020054396
:1026D00046EAE0762C4337430A986305E40AA0EB08
:1026E00008000022FD0A44EA47540A3002D50020BF
:1026F0000146E9E7010510196941DDE908450019BE
:102700006941BDE8F04DA2E72DE9FE4F804681EA20
:102710000300C00F0C46009021F0004123F000455B
:10272000B8EB0200A94105D24046214690461C461E
:102730000B46024623F00040104347D0270DC7F355
:102740000A00C3F30A510290401A019040286BDA44
:10275000C3F3130040F4801B0098924620B100237D
:10276000D2EB030A63EB0B0B01985946C0F1400210
:10277000504600F025F906460D4650465946019A46
:1027800000F03DF910EB08006141002487EA115286
:1027900084EAE7731A4340D0009A62B3019A012A8F
:1027A0004FEA075215DC001B61EB02014FF00042BB
:1027B00002EA0752CDE90042001C41F58011324681
:1027C0002B46FFF753FF03B0BDE8F08F404621468C
:1027D000F9E7001B61EB0201001C41F580130018B2
:1027E0005B412018A2F5001747EB030140EAD570C2
:1027F000B6196D4111E06D084FEA360645EAC0751D
:102800004FEA0752001B61EB0201001C41F58011E9
:1028100049084FEA30000019514132462B4603B0B7
:10282000BDE8F04FFFF713BF0098012240000023DE
:10283000D0EB020263EBE073009821464FEAE074AC
:10284000B8EB000061EB0401E9E783F000435BE7CC
:1028500081F0004158E72DE9FE4F81EA030404F0BE
:10286000004421F0004100944FF0000B23F000439E
:1028700050EA01045ED052EA03045BD0C3F30A5469
:10288000C1F30A552C44A4F2F3340194A0FB025482
:10289000C1F3130141F48011C3F3130343F4801314
:1028A00001FB024400FB034E840A970A44EA815468
:1028B00047EA8357A4FB076802958D0A05FB078545
:1028C0004FEA932C04FB0C542705029D4FEA06584F
:1028D00047EA1637B5EB08056EEB070C870E920E2C
:1028E00047EA811742EA8312A7FB0201B6EB0B010C
:1028F00064EB00042B0D43EA0C335E1844EB1C50D0
:10290000DA465146E7FB0201C5F313044FEA0B33E5
:1029100043EA14534FEA0432019C43EA0603A4F14C
:102920000C040294009CCDE900B4FFF79FFE03B0B5
:10293000BDE8F08F00200146F9E7C1F30A52C1F368
:10294000130140F2FF3341F480119A4202DA002071
:102950000146704740F233439A42A2F2334202DC0E
:10296000524200F03CB800F02BB8000030B5041E15
:1029700071F1000404DB4FF00044404264EB0101BC
:10298000141E73F1000405DB1C464FF00043524255
:1029900063EB0403994208BF904230BD064C074DDB
:1029A00006E0E06840F0010394E80700984710341F
:1029B000AC42F6D3FDF7C0FB703800089038000831
:1029C000202A04DB203A00FA02F1002070479140EF
:1029D000C2F1200320FA03F3194390407047202AE4
:1029E00004DB203A21FA02F00021704721FA02F3B9
:1029F000D040C2F120029140084319467047202A76
:102A000006DBCB17203A41FA02F043EAE07306E016
:102A100041FA02F3D040C2F1200291400843194626
:102A2000704770B521F0004303430CD0C1F30A5541
:102A30000024D5EB040564EB0403D617AD1AB341AB
:102A400002DB0020014670BD201841EB025170BD31
:102A50000FB4054B10B503A9044A029800F050F9D1
:102A600010BC5DF814FB00008B0A00084400002035
:102A7000490050EAC12018BF04204A0D18BF40F099
:102A8000010040F2FF72B2EB515F08BF40F002005C
:102A9000012808BF052070472DE9F0414F1E00EBCB
:102AA000C7010446D1E9000115461E4637F006026B
:102AB0000DD02A463346FFF7CEFE7F1E04EBC70338
:102AC000D3E90023FFF720FE37F00602F1D1022FF1
:102AD00025D0042F13D0062F18BFBDE8F0812A4659
:102AE0003346FFF7B8FED4E90A23FFF70DFE2A4666
:102AF0003346FFF7B0FED4E90823FFF705FE2A4668
:102B00003346FFF7A8FED4E90623FFF7FDFD2A466A
:102B10003346FFF7A0FED4E90423FFF7F5FD2A466C
:102B20003346FFF798FED4E90223FFF7EDFD2A466E
:102B30003346FFF790FED4E90023BDE8F041FFF7EC
:102B4000E3BD0122FFF76DBFFFF7DEBD024A0020A3
:102B50001107FFF766BF000001FDFFFF02E008C894
:102B6000121F08C1002AFAD170477047002001E007
:102B700001C1121F002AFBD1704700002DE9FF5F41
:102B800082B00021DDE90430020DDDF840B00343DE
:102B900018D044F61050A2F2FF3242431514119897
:102BA00001281FD0A5EB0B00401C5FEA000A4FF084
:102BB00000064E4FDFF83891B046504615D5CAF1A1
:102BC000000413E0119801244AA3012801D16FEAFF
:102BD0000B010298119AC0E90031C0E9024206B027
:102BE000BDE8F09FCBF10000DFE704460021404A3A
:102BF000491842EB0450CDE9001012E0E00707D07D
:102C000032463B4640464946FFF725FE8046894608
:102C100032463B4610461946FFF71DFE06460F4654
:102C20006410002CEAD1DDE90401DDE90023BAF1EA
:102C3000000F06DAFFF70FFE42464B46FFF70BFE8A
:102C400005E0FFF7C1FB42464B46FFF7BDFB0446DC
:102C50000E460022284BFFF789FE03D84FF0FF30C5
:102C6000014607E00022254B20463146FFF74CFD88
:102C7000FFF763FE102409E0002C0ADB0A22002380
:102C8000FFF77DFC039B30321A55641E50EA0102A7
:102C9000F2D1641C039AC4F111031444119A012A5D
:102CA00003D0012208430DD10AE0084304D00020DC
:102CB0004FF0110B119072E7A3EB0B056D1E0DE0A9
:102CC0005B4504DD4FF0000205F1010504E003DA85
:102CD0004FF00002A5F10105002AECD002981199ED
:102CE000C0E90231C0E9004579E700000000144066
:102CF0000000F03F300000000000F0430000E03F23
:102D00002DE9FF4F95B09B468946064600250FE208
:102D1000252877D100242746F84A0121059400E0B0
:102D2000044316F8013F203B01FA03F01042F7D1AB
:102D300030782A2811D06FF02F033078A0F13002BC
:102D4000092A16D8059A44F0020402EB820203EB2A
:102D500042021044761C0590EFE759F8042B0592C7
:102D6000002A03DA504244F40054059044F002046F
:102D7000761C30782E2816D116F8010F44F0040482
:102D80002A280DD06FF02F023078A0F13003092BE4
:102D900009D807EB870302EB4303C718761CF3E758
:102DA00059F8047B761C30786C280FD006DC4C2850
:102DB00017D068280DD06A2814D104E0742810D0E8
:102DC0007A280FD10DE044F400140AE044F4801492
:102DD00001E044F440147278824202D104F5801478
:102DE000761C761C307866280BD013DC582877D0F8
:102DF00009DC002875D04528F6D04628F4D04728AD
:102E00001AD19DE118E0632835D0642879D065286F
:102E100012D195E1702873D008DC6728F1D06928B9
:102E20006FD06E280DD06F2806D1B5E073282CD056
:102E3000752875D0782874D05A46179990476D1C1C
:102E400075E1C4F30250022809D003280DD0D9F847
:102E5000001004280DD00D6009F1040967E1D9F8CC
:102E60000010EA17C1E90052F6E7D9F800100D800A
:102E7000F2E70D70F0E719F8041B8DF80010002040
:102E80008DF80100EA46012003E059F804AB4FF049
:102E9000FF3061074FF0000102D40DE008F101019D
:102EA0008846B9420FDA8045F8DB1AF80810002985
:102EB000F4D108E008F1010188468142FADB1AF8F2
:102EC00008100029F6D105985B46A0EB08072146BB
:102ED0003846179A00F094FA284400EB080507E0FA
:102EE0004DE029E10DE01AF8010B5A461799904779
:102EF000B8F10108F7D25B4621463846179A13E12C
:102F000042E00A220092C4F302524FF0000A022A61
:102F100008D059F804CB032A4FEAEC710AD00DE02F
:102F200029E02AE009F1070121F00702F2E802C1D5
:102F3000914609E00FFA8CFC4FEAEC71042A03D1A8
:102F40004FFA8CFC4FEAEC71002907DA0A4600219F
:102F5000DCF1000C61EB02012D2202E0220504D518
:102F60002B228DF80420012203E0E20701D0202269
:102F7000F7E7904659E00A2102E010220DE0102107
:102F80004FF0000A00910BE010224FF0000A44F0CD
:102F900004040827009203E008224FF0000A009280
:102FA000C4F30252022A05D059F804CB0021032AA7
:102FB00008D009E009F1070121F00702F2E802C197
:102FC000914605E01FFA8CFC042A01D10CF0FF0C9D
:102FD0004FF00008220728D5702806D0009B83F008
:102FE000100353EA0A0305D00EE040228DF80420B6
:102FF000012208E05CEA010206D030228DF80420AC
:103000008DF8050002229046009B83F0080353EAE6
:103010000A030AD15CEA010201D1620705D5302218
:103020008DF804204FF001087F1E582804D034A0EA
:1030300003900EA802900DE036A0F9E753466046D3
:10304000009AFFF79CFA84460398825C0298401E1F
:10305000029002705CEA0100F0D1029806A9081AF9
:1030600000F1200A600702D524F4803400E0012733
:10307000574502DDA7EB0A0000E0002000EB0A0143
:10308000009005984144401A0590E00306D45B4641
:103090002146179A059800F0B3F90544002706E089
:1030A00001A85A46C05D179990476D1C7F1C474583
:1030B000F6DBE0030CD55B462146179A059800F035
:1030C0009FF9054404E030205A46179990476D1C3B
:1030D0000099481E00900029F5DC08E0029802994A
:1030E0005A460078491C0291179990476D1CBAF115
:1030F0000001AAF1010AF1DC65E1000009280100E4
:10310000303132333435363738396162636465665D
:10311000000000003031323334353637383941421F
:10312000434445460000000000F058F90544761C71
:10313000307800287FF4ECAD19B02846BDE8F08F58
:10314000620700D4062709F1070222F0070CFCE809
:103150000223E14603F000485FEA080C02D00FF2B8
:10316000702C0DE05FEA045C02D50FF2682C07E0DA
:103170005FEAC47C02D00FF2602C01E0AFF2700C69
:103180004FF0FF3823F00043CDF850C065280CD035
:1031900006DC452809D046281DD047283DD13DE012
:1031A000662818D067287ED138E00021112F01DB76
:1031B000112000E0781CCDE9000106A90EA8FFF758
:1031C000DDFCDDE90F010E9A03910021009207F169
:1031D000010A04914DE04FF000400097CDE9011045
:1031E00006A90EA8FFF7CAFCDDE90F0203920E9BA9
:1031F00011990022DDF80CA00093049211B9791CFA
:1032000000EB010AB7EB0A0004D4C0F1FF3007F16C
:10321000010A0490AAEB0700019044E0012F00DAB4
:1032200001270021112F01DD112000E03846CDE9F2
:10323000000106A90EA8FFF7A1FCDDE90F010E9A17
:103240000391002104910092BA4621070CD40399FE
:10325000514500DA8A46BAF1010F05DD009AAAF15C
:103260000101515C302908D0B84202DA10F1040F94
:1032700006DA0121CDE9011015E0AAF10101E9E723
:10328000002805DC049901440491AAEB000102E046
:10329000411C514500DD8A460499401A401C0190AA
:1032A0004FF000400290200704D40198504501DB04
:1032B000CDF8048000208DF84F0002980DF14F07E3
:1032C000B0F1004F25D02B200E9002984FF002084D
:1032D00000280CDA404202902D200E9007E00A21CF
:1032E0000298FFF736F93031029007F8011DB8F166
:1032F0000001A8F10108F2DC02980028EFD1791E44
:103300000E980870307800F0200040F0450007F873
:10331000020D12A8C01B00F107081498007800B134
:10332000012000EB0A01019801EBE071059841448E
:10333000401A401E0590E00306D45B462146179ACA
:10334000059800F05DF805441498007818B15A46C5
:10335000179990476D1CE00324D55B462146179AC8
:10336000059800F04DF805441CE00498002807DBA0
:10337000DDE90301884203DD0098405C179901E014
:10338000179930205A469047049805F10105401CD2
:1033900004900198401E019004D12E205A4617999E
:1033A00090476D1CBAF10001AAF1010ADDDC05E0CD
:1033B00017F8010B5A46179990476D1CB8F1000198
:1033C000A8F10108F4DC5B462146179A0598ABE6A4
:1033D0002D0000002B000000200000002DE9F0412E
:1033E000044600251E461746880404D405E03946E5
:1033F0002020B0476D1C641EF9D52846BDE8F08139
:103400002DE9F041044600251E469046C80301D52B
:10341000302700E02027880404D505E041463846DF
:10342000B0476D1C641EF9D52846BDE8F081000048
:103430002DE9F84F04460D4621F0004000917349F4
:10344000814211DC7249884201DC06D12CB1204650
:103450002946BDE8F84FFFF774BB6E48002DCCBF7E
:103460006D496E49BDE8F88F6D49814211DD6D49A6
:103470008142D8BF4FF0FF366DDD20462946FFF769
:10348000F7FA042808BFFFF761FB20462946BDE88C
:10349000F88F6549654F25F00045814233DD644969
:1034A000814219DD002632464FF0804320462946EE
:1034B000FFF72AF980468A46012220462946FFF76F
:1034C000B0FA00223B46FFF7C0F942465346FEF7EA
:1034D0007BFF04460D463EE001260022BA463B46ED
:1034E00020462946FFF710F980460F460022534632
:1034F00020462946FFF7A9F942463B46FEF764FFFE
:1035000004460D4627E04B4981421BDDDFF828A128
:1035100002260022534620462946FFF79CF9002246
:103520003B46FFF7F1F880460F46002253462046FF
:103530002946FFF78AF942463B46FEF745FF044617
:103540000D4608E0032622462B4600203B49FEF7A5
:103550003BFF04460D4622462B4610461946FFF710
:103560007AF98B46824602460B46FFF774F9074606
:103570000246334888460B4606217844FFF78CFA0A
:1035800052465B46FFF767F982462E488B463A461D
:10359000434605217844FFF77FFA3A464346FFF752
:1035A0005AF902460B46002E504659460CDAFFF7F0
:1035B000ABF822462B46FFF74EF901B022462B46C8
:1035C000BDE8F04FFFF744B9FFF79EF822462B46BF
:1035D000FFF741F91C4A7A4402EBC603D3E9002302
:1035E000FFF733F922462B46FFF72FF9174A7A44A3
:1035F00002EBC603D3E90023FFF72AF9009A002A59
:10360000B8BF81F00041BDE8F88F00000000104411
:103610000000F07F182D4454FB21F93FFB21F9BF36
:103620000000DC3F0000203E0000F33F0000F03FC0
:103630000000E63F008003400000F83F0000F0BFBC
:10364000BA0200007802000016020000DE0100004D
:103650002DE9F04D9446CCF1000423F000464CEAED
:103660000404524F46EAD4749A46884621F0004238
:10367000BC4206D8454240EA050442EAD474BC4242
:1036800004D9BDE8F04D6246FFF75EBAAAF1405595
:10369000A5F17F6555EA0C040BD0022404EAAA7454
:1036A000434DDFF810E144EAD87452EA000B04D02D
:1036B0000CE0BDE8F04DFFF7BBBE002C14BF012CA1
:1036C000BDE8F08D022C30D0032C32D056EA0C0B22
:1036D0000AD0BE4220D1BA4209D126F0804622F05B
:1036E00080423346114617E000291ADB25E0DFF857
:1036F000C8B0FB44002C04BFDBE90001BDE8F08D3D
:10370000012C02BFDBE9000181F00041BDE8F08D32
:10371000022C0AD0032C0CD0BA4212D1B8F1000FFF
:103720000BDA23482549BDE8F08D28462449BDE839
:10373000F08D28467146BDE8F08D1D482149BDE851
:10374000F08D921B12153C2AC4BF19481D490EDC8E
:10375000BAF1000FBEBF12F13C0F0020014606DB9C
:103760006246FEF731FE21F00041FFF761FE002CBA
:1037700008BFBDE8F08D012C04BF81F00041BDE819
:10378000F08D114A114B022C07D0FFF75EF82A4644
:10379000BDE8F04D0A4BFFF758B8FFF756F82A4638
:1037A000BDE8F04D064BFFF753B800000000F07F76
:1037B000182D4454FB2109C072010000FB21F9BF00
:1037C000FB210940FB21F93F075C143326A6A13CED
:1037D0004FBB610567ACDD3F182D4454FB21E93F29
:1037E0009BF681D20B73EF3F182D4454FB21F93F18
:1037F000E2652F227F2B7A3C075C143326A6813C9E
:10380000BDCBF07A8807703C075C143326A6913C48
:10381000C4EB98999999C9BF711623FEC671BCBFB4
:103820006D9A74AFF2B0B3BF9AFDDE522DDEADBF1C
:103830002F6C6A2C44B4A2BF0D5555555555D53F34
:10384000FF8300922449C23F6E204CC5CD45B73F4F
:10385000513DD0A0660DB13FEB0D76244B7BA93FC7
:1038600011DA22E33AAD903F0000000000000000B2
:103870009038000800000020480000005C2B000881
:10388000D838000848000020D80500006C2B00083C
:103890000000000000000000000000000000000028
:1038A00000000000000000000000000000A24A0428
:1038B00000000000000000000102030406070809E0
:1038C00000000000010203040102030406070809C6
:0838D0000204060800000000DC
:0400000508000131BD
:00000001FF
